{
  "_format": "hh-sol-artifact-1",
  "contractName": "Surety",
  "sourceName": "contracts/Surety.sol",
  "abi": [
    {
      "inputs": [
        {
          "internalType": "address",
          "name": "_oracleAddress",
          "type": "address"
        }
      ],
      "stateMutability": "nonpayable",
      "type": "constructor"
    },
    {
      "inputs": [
        {
          "internalType": "address",
          "name": "spender",
          "type": "address"
        },
        {
          "internalType": "uint256",
          "name": "allowance",
          "type": "uint256"
        },
        {
          "internalType": "uint256",
          "name": "needed",
          "type": "uint256"
        }
      ],
      "name": "ERC20InsufficientAllowance",
      "type": "error"
    },
    {
      "inputs": [
        {
          "internalType": "address",
          "name": "sender",
          "type": "address"
        },
        {
          "internalType": "uint256",
          "name": "balance",
          "type": "uint256"
        },
        {
          "internalType": "uint256",
          "name": "needed",
          "type": "uint256"
        }
      ],
      "name": "ERC20InsufficientBalance",
      "type": "error"
    },
    {
      "inputs": [
        {
          "internalType": "address",
          "name": "approver",
          "type": "address"
        }
      ],
      "name": "ERC20InvalidApprover",
      "type": "error"
    },
    {
      "inputs": [
        {
          "internalType": "address",
          "name": "receiver",
          "type": "address"
        }
      ],
      "name": "ERC20InvalidReceiver",
      "type": "error"
    },
    {
      "inputs": [
        {
          "internalType": "address",
          "name": "sender",
          "type": "address"
        }
      ],
      "name": "ERC20InvalidSender",
      "type": "error"
    },
    {
      "inputs": [
        {
          "internalType": "address",
          "name": "spender",
          "type": "address"
        }
      ],
      "name": "ERC20InvalidSpender",
      "type": "error"
    },
    {
      "inputs": [
        {
          "internalType": "address",
          "name": "owner",
          "type": "address"
        }
      ],
      "name": "OwnableInvalidOwner",
      "type": "error"
    },
    {
      "inputs": [
        {
          "internalType": "address",
          "name": "account",
          "type": "address"
        }
      ],
      "name": "OwnableUnauthorizedAccount",
      "type": "error"
    },
    {
      "anonymous": false,
      "inputs": [
        {
          "indexed": true,
          "internalType": "address",
          "name": "owner",
          "type": "address"
        },
        {
          "indexed": true,
          "internalType": "address",
          "name": "spender",
          "type": "address"
        },
        {
          "indexed": false,
          "internalType": "uint256",
          "name": "value",
          "type": "uint256"
        }
      ],
      "name": "Approval",
      "type": "event"
    },
    {
      "anonymous": false,
      "inputs": [
        {
          "indexed": true,
          "internalType": "address",
          "name": "previousOwner",
          "type": "address"
        },
        {
          "indexed": true,
          "internalType": "address",
          "name": "newOwner",
          "type": "address"
        }
      ],
      "name": "OwnershipTransferred",
      "type": "event"
    },
    {
      "anonymous": false,
      "inputs": [
        {
          "indexed": true,
          "internalType": "address",
          "name": "from",
          "type": "address"
        },
        {
          "indexed": true,
          "internalType": "address",
          "name": "to",
          "type": "address"
        },
        {
          "indexed": false,
          "internalType": "uint256",
          "name": "value",
          "type": "uint256"
        }
      ],
      "name": "Transfer",
      "type": "event"
    },
    {
      "inputs": [],
      "name": "COLLATERALIZATION_RATIO",
      "outputs": [
        {
          "internalType": "uint256",
          "name": "",
          "type": "uint256"
        }
      ],
      "stateMutability": "view",
      "type": "function"
    },
    {
      "inputs": [
        {
          "internalType": "address",
          "name": "owner",
          "type": "address"
        },
        {
          "internalType": "address",
          "name": "spender",
          "type": "address"
        }
      ],
      "name": "allowance",
      "outputs": [
        {
          "internalType": "uint256",
          "name": "",
          "type": "uint256"
        }
      ],
      "stateMutability": "view",
      "type": "function"
    },
    {
      "inputs": [
        {
          "internalType": "address",
          "name": "spender",
          "type": "address"
        },
        {
          "internalType": "uint256",
          "name": "value",
          "type": "uint256"
        }
      ],
      "name": "approve",
      "outputs": [
        {
          "internalType": "bool",
          "name": "",
          "type": "bool"
        }
      ],
      "stateMutability": "nonpayable",
      "type": "function"
    },
    {
      "inputs": [
        {
          "internalType": "address",
          "name": "account",
          "type": "address"
        }
      ],
      "name": "balanceOf",
      "outputs": [
        {
          "internalType": "uint256",
          "name": "",
          "type": "uint256"
        }
      ],
      "stateMutability": "view",
      "type": "function"
    },
    {
      "inputs": [],
      "name": "decimals",
      "outputs": [
        {
          "internalType": "uint8",
          "name": "",
          "type": "uint8"
        }
      ],
      "stateMutability": "view",
      "type": "function"
    },
    {
      "inputs": [],
      "name": "name",
      "outputs": [
        {
          "internalType": "string",
          "name": "",
          "type": "string"
        }
      ],
      "stateMutability": "view",
      "type": "function"
    },
    {
      "inputs": [],
      "name": "oracle",
      "outputs": [
        {
          "internalType": "address",
          "name": "",
          "type": "address"
        }
      ],
      "stateMutability": "view",
      "type": "function"
    },
    {
      "inputs": [],
      "name": "owner",
      "outputs": [
        {
          "internalType": "address",
          "name": "",
          "type": "address"
        }
      ],
      "stateMutability": "view",
      "type": "function"
    },
    {
      "inputs": [],
      "name": "renounceOwnership",
      "outputs": [],
      "stateMutability": "nonpayable",
      "type": "function"
    },
    {
      "inputs": [
        {
          "internalType": "uint256",
          "name": "stakeAmount",
          "type": "uint256"
        }
      ],
      "name": "stake",
      "outputs": [],
      "stateMutability": "nonpayable",
      "type": "function"
    },
    {
      "inputs": [
        {
          "internalType": "address",
          "name": "",
          "type": "address"
        }
      ],
      "name": "stakedBalances",
      "outputs": [
        {
          "internalType": "uint256",
          "name": "",
          "type": "uint256"
        }
      ],
      "stateMutability": "view",
      "type": "function"
    },
    {
      "inputs": [],
      "name": "symbol",
      "outputs": [
        {
          "internalType": "string",
          "name": "",
          "type": "string"
        }
      ],
      "stateMutability": "view",
      "type": "function"
    },
    {
      "inputs": [],
      "name": "totalSupply",
      "outputs": [
        {
          "internalType": "uint256",
          "name": "",
          "type": "uint256"
        }
      ],
      "stateMutability": "view",
      "type": "function"
    },
    {
      "inputs": [
        {
          "internalType": "address",
          "name": "to",
          "type": "address"
        },
        {
          "internalType": "uint256",
          "name": "value",
          "type": "uint256"
        }
      ],
      "name": "transfer",
      "outputs": [
        {
          "internalType": "bool",
          "name": "",
          "type": "bool"
        }
      ],
      "stateMutability": "nonpayable",
      "type": "function"
    },
    {
      "inputs": [
        {
          "internalType": "address",
          "name": "from",
          "type": "address"
        },
        {
          "internalType": "address",
          "name": "to",
          "type": "address"
        },
        {
          "internalType": "uint256",
          "name": "value",
          "type": "uint256"
        }
      ],
      "name": "transferFrom",
      "outputs": [
        {
          "internalType": "bool",
          "name": "",
          "type": "bool"
        }
      ],
      "stateMutability": "nonpayable",
      "type": "function"
    },
    {
      "inputs": [
        {
          "internalType": "address",
          "name": "newOwner",
          "type": "address"
        }
      ],
      "name": "transferOwnership",
      "outputs": [],
      "stateMutability": "nonpayable",
      "type": "function"
    },
    {
      "inputs": [
        {
          "internalType": "uint256",
          "name": "unstakeAmount",
          "type": "uint256"
        }
      ],
      "name": "unstake",
      "outputs": [],
      "stateMutability": "nonpayable",
      "type": "function"
    }
  ],
  "bytecode": "0x60806040523480156200001157600080fd5b50604051620023f3380380620023f3833981810160405281019062000037919062000616565b336040518060400160405280600681526020017f53757265747900000000000000000000000000000000000000000000000000008152506040518060400160405280600381526020017f53525400000000000000000000000000000000000000000000000000000000008152508160039081620000b59190620008c2565b508060049081620000c79190620008c2565b505050600073ffffffffffffffffffffffffffffffffffffffff168173ffffffffffffffffffffffffffffffffffffffff16036200013f5760006040517f1e4fbdf7000000000000000000000000000000000000000000000000000000008152600401620001369190620009ba565b60405180910390fd5b62000150816200022960201b60201c565b50600073ffffffffffffffffffffffffffffffffffffffff168173ffffffffffffffffffffffffffffffffffffffff1603620001c3576040517f08c379a0000000000000000000000000000000000000000000000000000000008152600401620001ba9062000a38565b60405180910390fd5b80600660006101000a81548173ffffffffffffffffffffffffffffffffffffffff021916908373ffffffffffffffffffffffffffffffffffffffff16021790555062000222336b033b2e3c9fd0803ce8000000620002ef60201b60201c565b5062000b2f565b6000600560009054906101000a900473ffffffffffffffffffffffffffffffffffffffff16905081600560006101000a81548173ffffffffffffffffffffffffffffffffffffffff021916908373ffffffffffffffffffffffffffffffffffffffff1602179055508173ffffffffffffffffffffffffffffffffffffffff168173ffffffffffffffffffffffffffffffffffffffff167f8be0079c531659141344cd1fd0a4f28419497f9722a3daafe3b4186f6b6457e060405160405180910390a35050565b600073ffffffffffffffffffffffffffffffffffffffff168273ffffffffffffffffffffffffffffffffffffffff1603620003645760006040517fec442f050000000000000000000000000000000000000000000000000000000081526004016200035b9190620009ba565b60405180910390fd5b62000378600083836200037c60201b60201c565b5050565b600073ffffffffffffffffffffffffffffffffffffffff168373ffffffffffffffffffffffffffffffffffffffff1603620003d2578060026000828254620003c5919062000a89565b92505081905550620004a8565b60008060008573ffffffffffffffffffffffffffffffffffffffff1673ffffffffffffffffffffffffffffffffffffffff1681526020019081526020016000205490508181101562000461578381836040517fe450d38c000000000000000000000000000000000000000000000000000000008152600401620004589392919062000ad5565b60405180910390fd5b8181036000808673ffffffffffffffffffffffffffffffffffffffff1673ffffffffffffffffffffffffffffffffffffffff16815260200190815260200160002081905550505b600073ffffffffffffffffffffffffffffffffffffffff168273ffffffffffffffffffffffffffffffffffffffff1603620004f3578060026000828254039250508190555062000540565b806000808473ffffffffffffffffffffffffffffffffffffffff1673ffffffffffffffffffffffffffffffffffffffff168152602001908152602001600020600082825401925050819055505b8173ffffffffffffffffffffffffffffffffffffffff168373ffffffffffffffffffffffffffffffffffffffff167fddf252ad1be2c89b69c2b068fc378daa952ba7f163c4a11628f55a4df523b3ef836040516200059f919062000b12565b60405180910390a3505050565b600080fd5b600073ffffffffffffffffffffffffffffffffffffffff82169050919050565b6000620005de82620005b1565b9050919050565b620005f081620005d1565b8114620005fc57600080fd5b50565b6000815190506200061081620005e5565b92915050565b6000602082840312156200062f576200062e620005ac565b5b60006200063f84828501620005ff565b91505092915050565b600081519050919050565b7f4e487b7100000000000000000000000000000000000000000000000000000000600052604160045260246000fd5b7f4e487b7100000000000000000000000000000000000000000000000000000000600052602260045260246000fd5b60006002820490506001821680620006ca57607f821691505b602082108103620006e057620006df62000682565b5b50919050565b60008190508160005260206000209050919050565b60006020601f8301049050919050565b600082821b905092915050565b6000600883026200074a7fffffffffffffffffffffffffffffffffffffffffffffffffffffffffffffffff826200070b565b6200075686836200070b565b95508019841693508086168417925050509392505050565b6000819050919050565b6000819050919050565b6000620007a36200079d62000797846200076e565b62000778565b6200076e565b9050919050565b6000819050919050565b620007bf8362000782565b620007d7620007ce82620007aa565b84845462000718565b825550505050565b600090565b620007ee620007df565b620007fb818484620007b4565b505050565b5b81811015620008235762000817600082620007e4565b60018101905062000801565b5050565b601f82111562000872576200083c81620006e6565b6200084784620006fb565b8101602085101562000857578190505b6200086f6200086685620006fb565b83018262000800565b50505b505050565b600082821c905092915050565b6000620008976000198460080262000877565b1980831691505092915050565b6000620008b2838362000884565b9150826002028217905092915050565b620008cd8262000648565b67ffffffffffffffff811115620008e957620008e862000653565b5b620008f58254620006b1565b6200090282828562000827565b600060209050601f8311600181146200093a576000841562000925578287015190505b620009318582620008a4565b865550620009a1565b601f1984166200094a86620006e6565b60005b8281101562000974578489015182556001820191506020850194506020810190506200094d565b8683101562000994578489015162000990601f89168262000884565b8355505b6001600288020188555050505b505050505050565b620009b481620005d1565b82525050565b6000602082019050620009d16000830184620009a9565b92915050565b600082825260208201905092915050565b7f4f7261636c6520616464726573732063616e6e6f74206265207a65726f000000600082015250565b600062000a20601d83620009d7565b915062000a2d82620009e8565b602082019050919050565b6000602082019050818103600083015262000a538162000a11565b9050919050565b7f4e487b7100000000000000000000000000000000000000000000000000000000600052601160045260246000fd5b600062000a96826200076e565b915062000aa3836200076e565b925082820190508082111562000abe5762000abd62000a5a565b5b92915050565b62000acf816200076e565b82525050565b600060608201905062000aec6000830186620009a9565b62000afb602083018562000ac4565b62000b0a604083018462000ac4565b949350505050565b600060208201905062000b29600083018462000ac4565b92915050565b6118b48062000b3f6000396000f3fe608060405234801561001057600080fd5b506004361061010b5760003560e01c806370a08231116100a257806395d89b411161007157806395d89b41146102aa578063a694fc3a146102c8578063a9059cbb146102e4578063dd62ed3e14610314578063f2fde38b146103445761010b565b806370a0823114610234578063715018a6146102645780637dc0d1d01461026e5780638da5cb5b1461028c5761010b565b806323b872dd116100de57806323b872dd146101ac5780632e17de78146101dc578063313ce567146101f85780633402ff1d146102165761010b565b806306fdde0314610110578063095ea7b31461012e5780631460fa871461015e57806318160ddd1461018e575b600080fd5b610118610360565b60405161012591906111a1565b60405180910390f35b6101486004803603810190610143919061125c565b6103f2565b60405161015591906112b7565b60405180910390f35b610178600480360381019061017391906112d2565b610415565b604051610185919061130e565b60405180910390f35b61019661042d565b6040516101a3919061130e565b60405180910390f35b6101c660048036038101906101c19190611329565b610437565b6040516101d391906112b7565b60405180910390f35b6101f660048036038101906101f1919061137c565b610466565b005b61020061058f565b60405161020d91906113c5565b60405180910390f35b61021e610598565b60405161022b919061130e565b60405180910390f35b61024e600480360381019061024991906112d2565b61059d565b60405161025b919061130e565b60405180910390f35b61026c6105e5565b005b6102766105f9565b60405161028391906113ef565b60405180910390f35b61029461061f565b6040516102a191906113ef565b60405180910390f35b6102b2610649565b6040516102bf91906111a1565b60405180910390f35b6102e260048036038101906102dd919061137c565b6106db565b005b6102fe60048036038101906102f9919061125c565b6108d3565b60405161030b91906112b7565b60405180910390f35b61032e6004803603810190610329919061140a565b6108f6565b60405161033b919061130e565b60405180910390f35b61035e600480360381019061035991906112d2565b61097d565b005b60606003805461036f90611479565b80601f016020809104026020016040519081016040528092919081815260200182805461039b90611479565b80156103e85780601f106103bd576101008083540402835291602001916103e8565b820191906000526020600020905b8154815290600101906020018083116103cb57829003601f168201915b5050505050905090565b6000806103fd610a03565b905061040a818585610a0b565b600191505092915050565b60076020528060005260406000206000915090505481565b6000600254905090565b600080610442610a03565b905061044f858285610a1d565b61045a858585610ab2565b60019150509392505050565b600081116104a9576040517f08c379a00000000000000000000000000000000000000000000000000000000081526004016104a09061151c565b60405180910390fd5b80600760003373ffffffffffffffffffffffffffffffffffffffff1673ffffffffffffffffffffffffffffffffffffffff16815260200190815260200160002054101561052b576040517f08c379a000000000000000000000000000000000000000000000000000000000815260040161052290611588565b60405180910390fd5b80600760003373ffffffffffffffffffffffffffffffffffffffff1673ffffffffffffffffffffffffffffffffffffffff168152602001908152602001600020600082825461057a91906115d7565b9250508190555061058c303383610ab2565b50565b60006012905090565b606e81565b60008060008373ffffffffffffffffffffffffffffffffffffffff1673ffffffffffffffffffffffffffffffffffffffff168152602001908152602001600020549050919050565b6105ed610ba6565b6105f76000610c2d565b565b600660009054906101000a900473ffffffffffffffffffffffffffffffffffffffff1681565b6000600560009054906101000a900473ffffffffffffffffffffffffffffffffffffffff16905090565b60606004805461065890611479565b80601f016020809104026020016040519081016040528092919081815260200182805461068490611479565b80156106d15780601f106106a6576101008083540402835291602001916106d1565b820191906000526020600020905b8154815290600101906020018083116106b457829003601f168201915b5050505050905090565b6000811161071e576040517f08c379a00000000000000000000000000000000000000000000000000000000081526004016107159061167d565b60405180910390fd5b6000600660009054906101000a900473ffffffffffffffffffffffffffffffffffffffff1673ffffffffffffffffffffffffffffffffffffffff16637d36fd2e6040518163ffffffff1660e01b8152600401602060405180830381865afa15801561078d573d6000803e3d6000fd5b505050506040513d601f19601f820116820180604052508101906107b191906116b2565b9050600081116107f6576040517f08c379a00000000000000000000000000000000000000000000000000000000081526004016107ed90611751565b60405180910390fd5b600061080783836305f5e100610cf3565b90506000610859600760003373ffffffffffffffffffffffffffffffffffffffff1673ffffffffffffffffffffffffffffffffffffffff16815260200190815260200160002054846305f5e100610cf3565b9050600082826108699190611771565b9050610876333087610ab2565b84600760003373ffffffffffffffffffffffffffffffffffffffff1673ffffffffffffffffffffffffffffffffffffffff16815260200190815260200160002060008282546108c59190611771565b925050819055505050505050565b6000806108de610a03565b90506108eb818585610ab2565b600191505092915050565b6000600160008473ffffffffffffffffffffffffffffffffffffffff1673ffffffffffffffffffffffffffffffffffffffff16815260200190815260200160002060008373ffffffffffffffffffffffffffffffffffffffff1673ffffffffffffffffffffffffffffffffffffffff16815260200190815260200160002054905092915050565b610985610ba6565b600073ffffffffffffffffffffffffffffffffffffffff168173ffffffffffffffffffffffffffffffffffffffff16036109f75760006040517f1e4fbdf70000000000000000000000000000000000000000000000000000000081526004016109ee91906113ef565b60405180910390fd5b610a0081610c2d565b50565b600033905090565b610a188383836001610d15565b505050565b6000610a2984846108f6565b90507fffffffffffffffffffffffffffffffffffffffffffffffffffffffffffffffff811015610aac5781811015610a9c578281836040517ffb8f41b2000000000000000000000000000000000000000000000000000000008152600401610a93939291906117a5565b60405180910390fd5b610aab84848484036000610d15565b5b50505050565b600073ffffffffffffffffffffffffffffffffffffffff168373ffffffffffffffffffffffffffffffffffffffff1603610b245760006040517f96c6fd1e000000000000000000000000000000000000000000000000000000008152600401610b1b91906113ef565b60405180910390fd5b600073ffffffffffffffffffffffffffffffffffffffff168273ffffffffffffffffffffffffffffffffffffffff1603610b965760006040517fec442f05000000000000000000000000000000000000000000000000000000008152600401610b8d91906113ef565b60405180910390fd5b610ba1838383610eec565b505050565b610bae610a03565b73ffffffffffffffffffffffffffffffffffffffff16610bcc61061f565b73ffffffffffffffffffffffffffffffffffffffff1614610c2b57610bef610a03565b6040517f118cdaa7000000000000000000000000000000000000000000000000000000008152600401610c2291906113ef565b60405180910390fd5b565b6000600560009054906101000a900473ffffffffffffffffffffffffffffffffffffffff16905081600560006101000a81548173ffffffffffffffffffffffffffffffffffffffff021916908373ffffffffffffffffffffffffffffffffffffffff1602179055508173ffffffffffffffffffffffffffffffffffffffff168173ffffffffffffffffffffffffffffffffffffffff167f8be0079c531659141344cd1fd0a4f28419497f9722a3daafe3b4186f6b6457e060405160405180910390a35050565b6000818385610d0291906117dc565b610d0c919061184d565b90509392505050565b600073ffffffffffffffffffffffffffffffffffffffff168473ffffffffffffffffffffffffffffffffffffffff1603610d875760006040517fe602df05000000000000000000000000000000000000000000000000000000008152600401610d7e91906113ef565b60405180910390fd5b600073ffffffffffffffffffffffffffffffffffffffff168373ffffffffffffffffffffffffffffffffffffffff1603610df95760006040517f94280d62000000000000000000000000000000000000000000000000000000008152600401610df091906113ef565b60405180910390fd5b81600160008673ffffffffffffffffffffffffffffffffffffffff1673ffffffffffffffffffffffffffffffffffffffff16815260200190815260200160002060008573ffffffffffffffffffffffffffffffffffffffff1673ffffffffffffffffffffffffffffffffffffffff168152602001908152602001600020819055508015610ee6578273ffffffffffffffffffffffffffffffffffffffff168473ffffffffffffffffffffffffffffffffffffffff167f8c5be1e5ebec7d5bd14f71427d1e84f3dd0314c0f7b2291e5b200ac8c7c3b92584604051610edd919061130e565b60405180910390a35b50505050565b600073ffffffffffffffffffffffffffffffffffffffff168373ffffffffffffffffffffffffffffffffffffffff1603610f3e578060026000828254610f329190611771565b92505081905550611011565b60008060008573ffffffffffffffffffffffffffffffffffffffff1673ffffffffffffffffffffffffffffffffffffffff16815260200190815260200160002054905081811015610fca578381836040517fe450d38c000000000000000000000000000000000000000000000000000000008152600401610fc1939291906117a5565b60405180910390fd5b8181036000808673ffffffffffffffffffffffffffffffffffffffff1673ffffffffffffffffffffffffffffffffffffffff16815260200190815260200160002081905550505b600073ffffffffffffffffffffffffffffffffffffffff168273ffffffffffffffffffffffffffffffffffffffff160361105a57806002600082825403925050819055506110a7565b806000808473ffffffffffffffffffffffffffffffffffffffff1673ffffffffffffffffffffffffffffffffffffffff168152602001908152602001600020600082825401925050819055505b8173ffffffffffffffffffffffffffffffffffffffff168373ffffffffffffffffffffffffffffffffffffffff167fddf252ad1be2c89b69c2b068fc378daa952ba7f163c4a11628f55a4df523b3ef83604051611104919061130e565b60405180910390a3505050565b600081519050919050565b600082825260208201905092915050565b60005b8381101561114b578082015181840152602081019050611130565b60008484015250505050565b6000601f19601f8301169050919050565b600061117382611111565b61117d818561111c565b935061118d81856020860161112d565b61119681611157565b840191505092915050565b600060208201905081810360008301526111bb8184611168565b905092915050565b600080fd5b600073ffffffffffffffffffffffffffffffffffffffff82169050919050565b60006111f3826111c8565b9050919050565b611203816111e8565b811461120e57600080fd5b50565b600081359050611220816111fa565b92915050565b6000819050919050565b61123981611226565b811461124457600080fd5b50565b60008135905061125681611230565b92915050565b60008060408385031215611273576112726111c3565b5b600061128185828601611211565b925050602061129285828601611247565b9150509250929050565b60008115159050919050565b6112b18161129c565b82525050565b60006020820190506112cc60008301846112a8565b92915050565b6000602082840312156112e8576112e76111c3565b5b60006112f684828501611211565b91505092915050565b61130881611226565b82525050565b600060208201905061132360008301846112ff565b92915050565b600080600060608486031215611342576113416111c3565b5b600061135086828701611211565b935050602061136186828701611211565b925050604061137286828701611247565b9150509250925092565b600060208284031215611392576113916111c3565b5b60006113a084828501611247565b91505092915050565b600060ff82169050919050565b6113bf816113a9565b82525050565b60006020820190506113da60008301846113b6565b92915050565b6113e9816111e8565b82525050565b600060208201905061140460008301846113e0565b92915050565b60008060408385031215611421576114206111c3565b5b600061142f85828601611211565b925050602061144085828601611211565b9150509250929050565b7f4e487b7100000000000000000000000000000000000000000000000000000000600052602260045260246000fd5b6000600282049050600182168061149157607f821691505b6020821081036114a4576114a361144a565b5b50919050565b7f556e7374616b6520616d6f756e74206d7573742062652067726561746572207460008201527f68616e207a65726f000000000000000000000000000000000000000000000000602082015250565b600061150660288361111c565b9150611511826114aa565b604082019050919050565b60006020820190508181036000830152611535816114f9565b9050919050565b7f496e73756666696369656e74207374616b65642062616c616e63650000000000600082015250565b6000611572601b8361111c565b915061157d8261153c565b602082019050919050565b600060208201905081810360008301526115a181611565565b9050919050565b7f4e487b7100000000000000000000000000000000000000000000000000000000600052601160045260246000fd5b60006115e282611226565b91506115ed83611226565b9250828203905081811115611605576116046115a8565b5b92915050565b7f5374616b6520616d6f756e74206d75737420626520677265617465722074686160008201527f6e207a65726f0000000000000000000000000000000000000000000000000000602082015250565b600061166760268361111c565b91506116728261160b565b604082019050919050565b600060208201905081810360008301526116968161165a565b9050919050565b6000815190506116ac81611230565b92915050565b6000602082840312156116c8576116c76111c3565b5b60006116d68482850161169d565b91505092915050565b7f4f7261636c65207072696365206d75737420626520677265617465722074686160008201527f6e207a65726f0000000000000000000000000000000000000000000000000000602082015250565b600061173b60268361111c565b9150611746826116df565b604082019050919050565b6000602082019050818103600083015261176a8161172e565b9050919050565b600061177c82611226565b915061178783611226565b925082820190508082111561179f5761179e6115a8565b5b92915050565b60006060820190506117ba60008301866113e0565b6117c760208301856112ff565b6117d460408301846112ff565b949350505050565b60006117e782611226565b91506117f283611226565b925082820261180081611226565b91508282048414831517611817576118166115a8565b5b5092915050565b7f4e487b7100000000000000000000000000000000000000000000000000000000600052601260045260246000fd5b600061185882611226565b915061186383611226565b9250826118735761187261181e565b5b82820490509291505056fea2646970667358221220e85641882992ef14b457782c288272c9d04a251e9d464f63bfdcd06e1f523cc764736f6c63430008140033",
  "linkReferences": {},
  "deployedLinkReferences": {}
}